{
  "contractName": "ContetStore",
  "abi": [
    {
      "constant": true,
      "inputs": [
        {
          "name": "",
          "type": "address"
        }
      ],
      "name": "previewContents",
      "outputs": [
        {
          "name": "",
          "type": "string"
        }
      ],
      "payable": false,
      "stateMutability": "view",
      "type": "function"
    },
    {
      "constant": false,
      "inputs": [],
      "name": "ContentStore",
      "outputs": [],
      "payable": false,
      "stateMutability": "nonpayable",
      "type": "function"
    },
    {
      "constant": true,
      "inputs": [
        {
          "name": "_owner",
          "type": "address"
        }
      ],
      "name": "getMain",
      "outputs": [
        {
          "name": "",
          "type": "string"
        }
      ],
      "payable": false,
      "stateMutability": "view",
      "type": "function"
    }
  ],
  "bytecode": "0x6060604052341561000f57600080fd5b6105c08061001e6000396000f300606060405260043610610057576000357c0100000000000000000000000000000000000000000000000000000000900463ffffffff1680636aa737471461005c57806376a97e371461010e578063b7628f7d146101c0575b600080fd5b341561006757600080fd5b610093600480803573ffffffffffffffffffffffffffffffffffffffff169060200190919050506101d5565b6040518080602001828103825283818151815260200191508051906020019080838360005b838110156100d35780820151818401526020810190506100b8565b50505050905090810190601f1680156101005780820380516001836020036101000a031916815260200191505b509250505060405180910390f35b341561011957600080fd5b610145600480803573ffffffffffffffffffffffffffffffffffffffff169060200190919050506102bc565b6040518080602001828103825283818151815260200191508051906020019080838360005b8381101561018557808201518184015260208101905061016a565b50505050905090810190601f1680156101b25780820380516001836020036101000a031916815260200191505b509250505060405180910390f35b34156101cb57600080fd5b6101d361036c565b005b6101dd6104db565b600160008373ffffffffffffffffffffffffffffffffffffffff1673ffffffffffffffffffffffffffffffffffffffff1681526020019081526020016000208054600181600116156101000203166002900480601f0160208091040260200160405190810160405280929190818152602001828054600181600116156101000203166002900480156102b05780601f10610285576101008083540402835291602001916102b0565b820191906000526020600020905b81548152906001019060200180831161029357829003601f168201915b50505050509050919050565b60006020528060005260406000206000915090508054600181600116156101000203166002900480601f0160208091040260200160405190810160405280929190818152602001828054600181600116156101000203166002900480156103645780601f1061033957610100808354040283529160200191610364565b820191906000526020600020905b81548152906001019060200180831161034757829003601f168201915b505050505081565b61042e606060405190810160405280602e81526020017f516d647731704e344d715074733736626f31525a3477674a365245486352445081526020017f3964727059626b31345464577465000000000000000000000000000000000000815250606060405190810160405280602e81526020017f516d583455376a776759664d36457a4d7433536969454c3234456353424c633981526020017f684b5753776e7171623139706852000000000000000000000000000000000000815250610430565b565b816000803373ffffffffffffffffffffffffffffffffffffffff1673ffffffffffffffffffffffffffffffffffffffff16815260200190815260200160002090805190602001906104829291906104ef565b5080600160003373ffffffffffffffffffffffffffffffffffffffff1673ffffffffffffffffffffffffffffffffffffffff16815260200190815260200160002090805190602001906104d69291906104ef565b505050565b602060405190810160405280600081525090565b828054600181600116156101000203166002900490600052602060002090601f016020900481019282601f1061053057805160ff191683800117855561055e565b8280016001018555821561055e579182015b8281111561055d578251825591602001919060010190610542565b5b50905061056b919061056f565b5090565b61059191905b8082111561058d576000816000905550600101610575565b5090565b905600a165627a7a72305820d84006a9fe03b015153daf19cb6fc7b94afa0704aa05e8d48bc245fd00f864330029",
  "source": "pragma solidity ^0.4.19;\n\ncontract ContetStore {\n  mapping (address => string) public previewContents;\n  mapping (address => string) private mainContents;\n\n  function ContentStore () public {\n    addContent(\n      \"Qmdw1pN4MqPts76bo1RZ4wgJ6REHcRDP9drpYbk14TdWte\",\n      \"QmX4U7jwgYfM6EzMt3SiiEL24EcSBLc9hKWSwnqqb19phR\"\n      );\n  }\n\n  function addContent (string _preview, string _main) private {\n    previewContents[msg.sender] = _preview;\n    mainContents[msg.sender] = _main;\n    // TODO: fire event\n  }\n\n  function getMain (address _owner) public view returns (string) {\n    return mainContents[_owner];\n  }\n}",
  "sourcePath": "/Users/jimmy.collazos/projects/hackathon-ethereum/contracts/ContentStore.sol",
  "compiler": {
    "name": "solc",
    "version": "0.4.19+commit.c4cbbb05.Emscripten.clang"
  },
  "schemaVersion": "2.0.0",
  "updatedAt": "2018-03-03T12:00:09.219Z"
}